:100000000C942A000C9449000C9475000C94A100E7
:100010000C943C000C943C000C943C000C943C0070
:100020000C943C000C943C000C943C000C943C0060
:100030000C943C000C943C000C943C000C943C0050
:100040000C943C000C943C000C943C000C943C0040
:100050000C943C0011241FBECFE5D8E0DEBFCDBF1D
:1000600020E0A0E6B0E001C01D92A636B207E1F79D
:100070000E94CD000C94CE000C9400009AB721E0B1
:1000800030E002C0220F331F8A95E2F7292B2ABFE6
:1000900008951F920F920FB60F9211242F933F9342
:1000A0004F935F936F937F938F939F93AF93BF9380
:1000B000EF93FF93E0916000F0916100309721F0A1
:1000C000099586E00E943E00FF91EF91BF91AF91AC
:1000D0009F918F917F916F915F914F913F912F9160
:1000E0000F900FBE0F901F9018951F920F920FB692
:1000F0000F9211242F933F934F935F936F937F93AE
:100100008F939F93AF93BF93EF93FF93E091620020
:10011000F0916300309721F0099587E00E943E003E
:10012000FF91EF91BF91AF919F918F917F916F91CF
:100130005F914F913F912F910F900FBE0F901F90A5
:1001400018951F920F920FB60F9211242F933F9381
:100150004F935F936F937F938F939F93AF93BF93CF
:10016000EF93FF93E0916400F0916500309721F0E8
:10017000099585E00E943E00FF91EF91BF91AF91FC
:100180009F918F917F916F915F914F913F912F91AF
:100190000F900FBE0F901F901895FFCFF894FFCFD0
:00000001FF
